{
  "contractName": "AdvertiserFactory",
  "abi": [
    {
      "constant": true,
      "inputs": [],
      "name": "isAdvertiserRegistered",
      "outputs": [
        {
          "name": "",
          "type": "bool"
        }
      ],
      "payable": false,
      "stateMutability": "view",
      "type": "function"
    },
    {
      "constant": false,
      "inputs": [
        {
          "name": "_profileHash",
          "type": "string"
        }
      ],
      "name": "registerAdvertiser",
      "outputs": [],
      "payable": false,
      "stateMutability": "nonpayable",
      "type": "function"
    },
    {
      "constant": true,
      "inputs": [],
      "name": "getDeployedAdvertisers",
      "outputs": [
        {
          "name": "",
          "type": "address[]"
        }
      ],
      "payable": false,
      "stateMutability": "view",
      "type": "function"
    },
    {
      "constant": true,
      "inputs": [],
      "name": "getAdvertiserByOwner",
      "outputs": [
        {
          "name": "",
          "type": "address"
        }
      ],
      "payable": false,
      "stateMutability": "view",
      "type": "function"
    }
  ],
  "bytecode": "0x608060405234801561001057600080fd5b506114b9806100206000396000f300608060405260043610610062576000357c0100000000000000000000000000000000000000000000000000000000900463ffffffff1680632666187b1461006757806386810ae4146100d3578063955c65211461012a578063b970e6ab14610193575b600080fd5b34801561007357600080fd5b5061007c6101c2565b6040518080602001828103825283818151815260200191508051906020019060200280838360005b838110156100bf5780820151818401526020810190506100a4565b505050509050019250505060405180910390f35b3480156100df57600080fd5b506100e8610250565b604051808273ffffffffffffffffffffffffffffffffffffffff1673ffffffffffffffffffffffffffffffffffffffff16815260200191505060405180910390f35b34801561013657600080fd5b50610191600480360381019080803590602001908201803590602001908080601f01602080910402602001604051908101604052809392919081815260200183838082843782019150505050505091929192905050506102b7565b005b34801561019f57600080fd5b506101a86104c4565b604051808215151515815260200191505060405180910390f35b6060600080548060200260200160405190810160405280929190818152602001828054801561024657602002820191906000526020600020905b8160009054906101000a900473ffffffffffffffffffffffffffffffffffffffff1673ffffffffffffffffffffffffffffffffffffffff16815260200190600101908083116101fc575b5050505050905090565b6000600160003373ffffffffffffffffffffffffffffffffffffffff1673ffffffffffffffffffffffffffffffffffffffff16815260200190815260200160002060009054906101000a900473ffffffffffffffffffffffffffffffffffffffff16905090565b600081336102c3610518565b80806020018373ffffffffffffffffffffffffffffffffffffffff1673ffffffffffffffffffffffffffffffffffffffff168152602001828103825284818151815260200191508051906020019080838360005b83811015610332578082015181840152602081019050610317565b50505050905090810190601f16801561035f5780820380516001836020036101000a031916815260200191505b509350505050604051809103906000f080158015610381573d6000803e3d6000fd5b50905060008190806001815401808255809150509060018203906000526020600020016000909192909190916101000a81548173ffffffffffffffffffffffffffffffffffffffff021916908373ffffffffffffffffffffffffffffffffffffffff1602179055505080600160003373ffffffffffffffffffffffffffffffffffffffff1673ffffffffffffffffffffffffffffffffffffffff16815260200190815260200160002060006101000a81548173ffffffffffffffffffffffffffffffffffffffff021916908373ffffffffffffffffffffffffffffffffffffffff1602179055506001600260003373ffffffffffffffffffffffffffffffffffffffff1673ffffffffffffffffffffffffffffffffffffffff16815260200190815260200160002060006101000a81548160ff0219169083151502179055505050565b6000600260003373ffffffffffffffffffffffffffffffffffffffff1673ffffffffffffffffffffffffffffffffffffffff16815260200190815260200160002060009054906101000a900460ff16905090565b604051610f6580610529833901905600608060405234801561001057600080fd5b50604051610f65380380610f658339810180604052810190808051820192919060200180519060200190929190505050806000806101000a81548173ffffffffffffffffffffffffffffffffffffffff021916908373ffffffffffffffffffffffffffffffffffffffff160217905550816001908051906020019061009692919061009e565b505050610143565b828054600181600116156101000203166002900490600052602060002090601f016020900481019282601f106100df57805160ff191683800117855561010d565b8280016001018555821561010d579182015b8281111561010c5782518255916020019190600101906100f1565b5b50905061011a919061011e565b5090565b61014091905b8082111561013c576000816000905550600101610124565b5090565b90565b610e13806101526000396000f300608060405260043610610061576000357c0100000000000000000000000000000000000000000000000000000000900463ffffffff1680629299e314610066578063ba42a276146100cf578063d6afc9b114610138578063da0d6ca0146101fb575b600080fd5b34801561007257600080fd5b506100cd600480360381019080803590602001908201803590602001908080601f0160208091040260200160405190810160405280939291908181526020018383808284378201915050505050509192919290505050610267565b005b3480156100db57600080fd5b50610136600480360381019080803590602001908201803590602001908080601f016020809104026020016040519081016040528093929190818152602001838380828437820191505050505050919291929050505061036b565b005b34801561014457600080fd5b5061014d6105c0565b60405180806020018373ffffffffffffffffffffffffffffffffffffffff1673ffffffffffffffffffffffffffffffffffffffff168152602001828103825284818151815260200191508051906020019080838360005b838110156101bf5780820151818401526020810190506101a4565b50505050905090810190601f1680156101ec5780820380516001836020036101000a031916815260200191505b50935050505060405180910390f35b34801561020757600080fd5b5061021061068c565b6040518080602001828103825283818151815260200191508051906020019060200280838360005b83811015610253578082015181840152602081019050610238565b505050509050019250505060405180910390f35b6000809054906101000a900473ffffffffffffffffffffffffffffffffffffffff1673ffffffffffffffffffffffffffffffffffffffff163373ffffffffffffffffffffffffffffffffffffffff16141515610351576040517f08c379a000000000000000000000000000000000000000000000000000000000815260040180806020018281038252603f8152602001807f596f75206e65656420746f20686176652061647665727469736572206f776e6581526020017f722063726564656e7469616c20666f722074686973206f7065726174696f6e0081525060400191505060405180910390fd5b806001908051906020019061036792919061071a565b5050565b60008060009054906101000a900473ffffffffffffffffffffffffffffffffffffffff1673ffffffffffffffffffffffffffffffffffffffff163373ffffffffffffffffffffffffffffffffffffffff16141515610457576040517f08c379a000000000000000000000000000000000000000000000000000000000815260040180806020018281038252603f8152602001807f596f75206e65656420746f20686176652061647665727469736572206f776e6581526020017f722063726564656e7469616c20666f722074686973206f7065726174696f6e0081525060400191505060405180910390fd5b81303361046261079a565b80806020018473ffffffffffffffffffffffffffffffffffffffff1673ffffffffffffffffffffffffffffffffffffffff1681526020018373ffffffffffffffffffffffffffffffffffffffff1673ffffffffffffffffffffffffffffffffffffffff168152602001828103825285818151815260200191508051906020019080838360005b838110156105035780820151818401526020810190506104e8565b50505050905090810190601f1680156105305780820380516001836020036101000a031916815260200191505b50945050505050604051809103906000f080158015610553573d6000803e3d6000fd5b50905060028190806001815401808255809150509060018203906000526020600020016000909192909190916101000a81548173ffffffffffffffffffffffffffffffffffffffff021916908373ffffffffffffffffffffffffffffffffffffffff160217905550505050565b6060600060016000809054906101000a900473ffffffffffffffffffffffffffffffffffffffff16818054600181600116156101000203166002900480601f01602080910402602001604051908101604052809291908181526020018280546001816001161561010002031660029004801561067d5780601f106106525761010080835404028352916020019161067d565b820191906000526020600020905b81548152906001019060200180831161066057829003601f168201915b50505050509150915091509091565b6060600280548060200260200160405190810160405280929190818152602001828054801561071057602002820191906000526020600020905b8160009054906101000a900473ffffffffffffffffffffffffffffffffffffffff1673ffffffffffffffffffffffffffffffffffffffff16815260200190600101908083116106c6575b5050505050905090565b828054600181600116156101000203166002900490600052602060002090601f016020900481019282601f1061075b57805160ff1916838001178555610789565b82800160010185558215610789579182015b8281111561078857825182559160200191906001019061076d565b5b50905061079691906107aa565b5090565b604051610618806107d083390190565b6107cc91905b808211156107c85760008160009055506001016107b0565b5090565b905600608060405234801561001057600080fd5b5060405161061838038061061883398101806040528101908080518201929190602001805190602001909291908051906020019092919050505082600090805190602001906100609291906100eb565b5081600160006101000a81548173ffffffffffffffffffffffffffffffffffffffff021916908373ffffffffffffffffffffffffffffffffffffffff16021790555080600260006101000a81548173ffffffffffffffffffffffffffffffffffffffff021916908373ffffffffffffffffffffffffffffffffffffffff160217905550505050610190565b828054600181600116156101000203166002900490600052602060002090601f016020900481019282601f1061012c57805160ff191683800117855561015a565b8280016001018555821561015a579182015b8281111561015957825182559160200191906001019061013e565b5b509050610167919061016b565b5090565b61018d91905b80821115610189576000816000905550600101610171565b5090565b90565b6104798061019f6000396000f30060806040526004361061004b576000357c0100000000000000000000000000000000000000000000000000000000900463ffffffff1680629299e314610050578063d6afc9b1146100b9575b600080fd5b34801561005c57600080fd5b506100b7600480360381019080803590602001908201803590602001908080601f01602080910402602001604051908101604052809392919081815260200183838082843782019150505050505091929192905050506101af565b005b3480156100c557600080fd5b506100ce6102b4565b60405180806020018473ffffffffffffffffffffffffffffffffffffffff1673ffffffffffffffffffffffffffffffffffffffff1681526020018373ffffffffffffffffffffffffffffffffffffffff1673ffffffffffffffffffffffffffffffffffffffff168152602001828103825285818151815260200191508051906020019080838360005b83811015610172578082015181840152602081019050610157565b50505050905090810190601f16801561019f5780820380516001836020036101000a031916815260200191505b5094505050505060405180910390f35b600260009054906101000a900473ffffffffffffffffffffffffffffffffffffffff1673ffffffffffffffffffffffffffffffffffffffff163373ffffffffffffffffffffffffffffffffffffffff1614151561029a576040517f08c379a000000000000000000000000000000000000000000000000000000000815260040180806020018281038252603f8152602001807f596f75206e65656420746f20686176652061647665727469736572206f776e6581526020017f722063726564656e7469616c20666f722074686973206f7065726174696f6e0081525060400191505060405180910390fd5b80600090805190602001906102b09291906103a8565b5050565b60606000806000600160009054906101000a900473ffffffffffffffffffffffffffffffffffffffff16600260009054906101000a900473ffffffffffffffffffffffffffffffffffffffff16828054600181600116156101000203166002900480601f0160208091040260200160405190810160405280929190818152602001828054600181600116156101000203166002900480156103965780601f1061036b57610100808354040283529160200191610396565b820191906000526020600020905b81548152906001019060200180831161037957829003601f168201915b50505050509250925092509250909192565b828054600181600116156101000203166002900490600052602060002090601f016020900481019282601f106103e957805160ff1916838001178555610417565b82800160010185558215610417579182015b828111156104165782518255916020019190600101906103fb565b5b5090506104249190610428565b5090565b61044a91905b8082111561044657600081600090555060010161042e565b5090565b905600a165627a7a723058207064958c6ec585c2579711b256a9715ee3f3ac633595010fbea451d81f8631710029a165627a7a723058208c4ca67f28d6284a248a7a25de0c2bde5b6bace04b9fe8c97cfd85958a2bfa7f0029a165627a7a72305820c5502f38cd705be1422377103528cf818892db30d5b77c5031151f1b05b204cf0029",
  "source": "pragma solidity ^0.4.24;\n\ncontract AdvertiserFactory {\n    address[] deployedAdvertisers;\n    mapping(address => address) advertisers; //owner to advertiser\n    mapping(address => bool) owners;\n\n    function isAdvertiserRegistered() public view returns(bool) {\n        return owners[msg.sender];\n    }\n\n    function registerAdvertiser(string _profileHash) public {\n        address advertiser = new Advertiser(_profileHash, msg.sender);\n        deployedAdvertisers.push(advertiser);\n        advertisers[msg.sender] = advertiser; \n        owners[msg.sender] = true;\n    }\n\n    function getDeployedAdvertisers() public view returns(address[]) {\n        return deployedAdvertisers;\n    }\n\n    function getAdvertiserByOwner() public view returns(address) {\n        return advertisers[msg.sender];\n    }\n}\n\ncontract Advertiser {\n    address owner;\n    string profileHash;\n    address[] deployedOffers;\n\n    modifier restricted() {\n        require(msg.sender == owner, \"You need to have advertiser owner credential for this operation\");\n        _;\n    }\n    constructor(string _profileHash, address _owner) public {\n        owner = _owner;\n        profileHash = _profileHash;\n    }\n\n    function getProfile() public view returns(string, address) {\n        return(\n           profileHash,\n           owner \n        );\n    }\n\n    function updateProfile(string _profileHash) public restricted {\n        profileHash = _profileHash;\n    }\n\n    function createOffer(string _offerProfileHash) public restricted {\n        address offer = new Offer(_offerProfileHash, address(this), msg.sender);\n        deployedOffers.push(offer);\n    }\n\n    function getDeployedOffers() public view returns(address[]) {\n        return deployedOffers;\n    }\n\n}\n\ncontract Offer {\n    string offerProfileHash;\n    address advertiserContract;\n    address advertiserowner;\n\n    modifier restricted() {\n        require(msg.sender == advertiserowner, \"You need to have advertiser owner credential for this operation\");\n        _;\n    }\n\n    constructor(string _offerProfileHash, address _advertiserContract, address _advertiserowner) public {\n        offerProfileHash = _offerProfileHash;\n        advertiserContract = _advertiserContract;\n        advertiserowner = _advertiserowner;\n    }\n\n    function getProfile() public view returns(string, address, address) {\n        return(\n            offerProfileHash,\n            advertiserContract,\n            advertiserowner\n        );\n    }\n\n    function updateProfile(string _offerProfileHash) public restricted {\n        offerProfileHash = _offerProfileHash;\n    }\n\n}",
  "sourcePath": "/Users/raja/ETH-Singapore/smart-aggregator/contracts/Advertiser.sol",
  "compiler": {
    "name": "solc",
    "version": "0.4.24+commit.e67f0147.Emscripten.clang"
  },
  "schemaVersion": "2.0.1",
  "updatedAt": "2018-12-07T17:55:56.872Z"
}