{
  "contractName": "Offer",
  "abi": [
    {
      "inputs": [
        {
          "name": "_offerProfileHash",
          "type": "string"
        },
        {
          "name": "_advertiserContract",
          "type": "address"
        },
        {
          "name": "_advertiserowner",
          "type": "address"
        }
      ],
      "payable": false,
      "stateMutability": "nonpayable",
      "type": "constructor"
    },
    {
      "constant": true,
      "inputs": [],
      "name": "getProfile",
      "outputs": [
        {
          "name": "",
          "type": "string"
        },
        {
          "name": "",
          "type": "address"
        },
        {
          "name": "",
          "type": "address"
        }
      ],
      "payable": false,
      "stateMutability": "view",
      "type": "function"
    },
    {
      "constant": false,
      "inputs": [
        {
          "name": "_offerProfileHash",
          "type": "string"
        }
      ],
      "name": "updateProfile",
      "outputs": [],
      "payable": false,
      "stateMutability": "nonpayable",
      "type": "function"
    },
    {
      "constant": false,
      "inputs": [
        {
          "name": "_publishedOfferContractAddress",
          "type": "address"
        },
        {
          "name": "_clickId",
          "type": "string"
        },
        {
          "name": "_conversionId",
          "type": "string"
        },
        {
          "name": "_conversionData",
          "type": "string"
        }
      ],
      "name": "registerConversion",
      "outputs": [],
      "payable": false,
      "stateMutability": "nonpayable",
      "type": "function"
    },
    {
      "constant": true,
      "inputs": [],
      "name": "getConversionsCount",
      "outputs": [
        {
          "name": "",
          "type": "uint256"
        }
      ],
      "payable": false,
      "stateMutability": "view",
      "type": "function"
    },
    {
      "constant": true,
      "inputs": [
        {
          "name": "index",
          "type": "uint256"
        }
      ],
      "name": "getConversionByIndex",
      "outputs": [
        {
          "name": "",
          "type": "string"
        },
        {
          "name": "",
          "type": "string"
        },
        {
          "name": "",
          "type": "string"
        },
        {
          "name": "",
          "type": "address"
        }
      ],
      "payable": false,
      "stateMutability": "view",
      "type": "function"
    }
  ],
  "bytecode": "0x608060405234801561001057600080fd5b5060405161114538038061114583398101806040528101908080518201929190602001805190602001909291908051906020019092919050505082600090805190602001906100609291906100eb565b5081600160006101000a81548173ffffffffffffffffffffffffffffffffffffffff021916908373ffffffffffffffffffffffffffffffffffffffff16021790555080600260006101000a81548173ffffffffffffffffffffffffffffffffffffffff021916908373ffffffffffffffffffffffffffffffffffffffff160217905550505050610190565b828054600181600116156101000203166002900490600052602060002090601f016020900481019282601f1061012c57805160ff191683800117855561015a565b8280016001018555821561015a579182015b8281111561015957825182559160200191906001019061013e565b5b509050610167919061016b565b5090565b61018d91905b80821115610189576000816000905550600101610171565b5090565b90565b610fa68061019f6000396000f30060806040526004361061006c576000357c0100000000000000000000000000000000000000000000000000000000900463ffffffff1680629299e3146100715780639dbfe85e146100da578063d1cef9ad1461028b578063d6afc9b1146102b6578063f014dda6146103ac575b600080fd5b34801561007d57600080fd5b506100d8600480360381019080803590602001908201803590602001908080601f01602080910402602001604051908101604052809392919081815260200183838082843782019150505050505091929192905050506104c1565b005b3480156100e657600080fd5b50610105600480360381019080803590602001909291905050506105c6565b604051808060200180602001806020018573ffffffffffffffffffffffffffffffffffffffff1673ffffffffffffffffffffffffffffffffffffffff168152602001848103845288818151815260200191508051906020019080838360005b8381101561017f578082015181840152602081019050610164565b50505050905090810190601f1680156101ac5780820380516001836020036101000a031916815260200191505b50848103835287818151815260200191508051906020019080838360005b838110156101e55780820151818401526020810190506101ca565b50505050905090810190601f1680156102125780820380516001836020036101000a031916815260200191505b50848103825286818151815260200191508051906020019080838360005b8381101561024b578082015181840152602081019050610230565b50505050905090810190601f1680156102785780820380516001836020036101000a031916815260200191505b5097505050505050505060405180910390f35b34801561029757600080fd5b506102a061087b565b6040518082815260200191505060405180910390f35b3480156102c257600080fd5b506102cb610888565b60405180806020018473ffffffffffffffffffffffffffffffffffffffff1673ffffffffffffffffffffffffffffffffffffffff1681526020018373ffffffffffffffffffffffffffffffffffffffff1673ffffffffffffffffffffffffffffffffffffffff168152602001828103825285818151815260200191508051906020019080838360005b8381101561036f578082015181840152602081019050610354565b50505050905090810190601f16801561039c5780820380516001836020036101000a031916815260200191505b5094505050505060405180910390f35b3480156103b857600080fd5b506104bf600480360381019080803573ffffffffffffffffffffffffffffffffffffffff169060200190929190803590602001908201803590602001908080601f0160208091040260200160405190810160405280939291908181526020018383808284378201915050505050509192919290803590602001908201803590602001908080601f0160208091040260200160405190810160405280939291908181526020018383808284378201915050505050509192919290803590602001908201803590602001908080601f016020809104026020016040519081016040528093929190818152602001838380828437820191505050505050919291929050505061097c565b005b600260009054906101000a900473ffffffffffffffffffffffffffffffffffffffff1673ffffffffffffffffffffffffffffffffffffffff163373ffffffffffffffffffffffffffffffffffffffff161415156105ac576040517f08c379a000000000000000000000000000000000000000000000000000000000815260040180806020018281038252603f8152602001807f596f75206e65656420746f20686176652061647665727469736572206f776e6581526020017f722063726564656e7469616c20666f722074686973206f7065726174696f6e0081525060400191505060405180910390fd5b80600090805190602001906105c2929190610e16565b5050565b606080606060008060008610151515610647576040517f08c379a00000000000000000000000000000000000000000000000000000000081526004018080602001828103825260188152602001807f496e6465782073686f756c6420626520706f736974697665000000000000000081525060200191505060405180910390fd5b60038681548110151561065657fe5b906000526020600020906004020190508060000181600101826002018360030160009054906101000a900473ffffffffffffffffffffffffffffffffffffffff16838054600181600116156101000203166002900480601f01602080910402602001604051908101604052809291908181526020018280546001816001161561010002031660029004801561072c5780601f106107015761010080835404028352916020019161072c565b820191906000526020600020905b81548152906001019060200180831161070f57829003601f168201915b50505050509350828054600181600116156101000203166002900480601f0160208091040260200160405190810160405280929190818152602001828054600181600116156101000203166002900480156107c85780601f1061079d576101008083540402835291602001916107c8565b820191906000526020600020905b8154815290600101906020018083116107ab57829003601f168201915b50505050509250818054600181600116156101000203166002900480601f0160208091040260200160405190810160405280929190818152602001828054600181600116156101000203166002900480156108645780601f1061083957610100808354040283529160200191610864565b820191906000526020600020905b81548152906001019060200180831161084757829003601f168201915b505050505091509450945094509450509193509193565b6000600380549050905090565b60606000806000600160009054906101000a900473ffffffffffffffffffffffffffffffffffffffff16600260009054906101000a900473ffffffffffffffffffffffffffffffffffffffff16828054600181600116156101000203166002900480601f01602080910402602001604051908101604052809291908181526020018280546001816001161561010002031660029004801561096a5780601f1061093f5761010080835404028352916020019161096a565b820191906000526020600020905b81548152906001019060200180831161094d57829003601f168201915b50505050509250925092509250909192565b610984610e96565b6000600260009054906101000a900473ffffffffffffffffffffffffffffffffffffffff1673ffffffffffffffffffffffffffffffffffffffff163373ffffffffffffffffffffffffffffffffffffffff16141515610a71576040517f08c379a000000000000000000000000000000000000000000000000000000000815260040180806020018281038252603f8152602001807f596f75206e65656420746f20686176652061647665727469736572206f776e6581526020017f722063726564656e7469616c20666f722074686973206f7065726174696f6e0081525060400191505060405180910390fd5b600073ffffffffffffffffffffffffffffffffffffffff168673ffffffffffffffffffffffffffffffffffffffff1614151515610b3c576040517f08c379a000000000000000000000000000000000000000000000000000000000815260040180806020018281038252602e8152602001807f5075626c6973686572204f6666657220436f6e7472616374204164647265737381526020017f206973206e6f7420666f756e642100000000000000000000000000000000000081525060400191505060405180910390fd5b6080604051908101604052808681526020018581526020018481526020018773ffffffffffffffffffffffffffffffffffffffff168152509150600382908060018154018082558091505090600182039060005260206000209060040201600090919290919091506000820151816000019080519060200190610bc0929190610ed5565b506020820151816001019080519060200190610bdd929190610ed5565b506040820151816002019080519060200190610bfa929190610ed5565b5060608201518160030160006101000a81548173ffffffffffffffffffffffffffffffffffffffff021916908373ffffffffffffffffffffffffffffffffffffffff1602179055505050508590508073ffffffffffffffffffffffffffffffffffffffff1663d745c04d8686866040518463ffffffff167c010000000000000000000000000000000000000000000000000000000002815260040180806020018060200180602001848103845287818151815260200191508051906020019080838360005b83811015610cda578082015181840152602081019050610cbf565b50505050905090810190601f168015610d075780820380516001836020036101000a031916815260200191505b50848103835286818151815260200191508051906020019080838360005b83811015610d40578082015181840152602081019050610d25565b50505050905090810190601f168015610d6d5780820380516001836020036101000a031916815260200191505b50848103825285818151815260200191508051906020019080838360005b83811015610da6578082015181840152602081019050610d8b565b50505050905090810190601f168015610dd35780820380516001836020036101000a031916815260200191505b509650505050505050600060405180830381600087803b158015610df657600080fd5b505af1158015610e0a573d6000803e3d6000fd5b50505050505050505050565b828054600181600116156101000203166002900490600052602060002090601f016020900481019282601f10610e5757805160ff1916838001178555610e85565b82800160010185558215610e85579182015b82811115610e84578251825591602001919060010190610e69565b5b509050610e929190610f55565b5090565b608060405190810160405280606081526020016060815260200160608152602001600073ffffffffffffffffffffffffffffffffffffffff1681525090565b828054600181600116156101000203166002900490600052602060002090601f016020900481019282601f10610f1657805160ff1916838001178555610f44565b82800160010185558215610f44579182015b82811115610f43578251825591602001919060010190610f28565b5b509050610f519190610f55565b5090565b610f7791905b80821115610f73576000816000905550600101610f5b565b5090565b905600a165627a7a723058201808ee50c1fc31d708957523c33042cea8ebfaf64e8bd30d53bc2e168c6002200029",
  "source": "pragma solidity ^0.4.24;\n\nimport \"./Publisher.sol\";\n\ncontract AdvertiserFactory {\n    address[] deployedAdvertisers;\n    mapping(address => address) advertisers; //owner to advertiser\n    mapping(address => bool) owners;\n\n    function isAdvertiserRegistered() public view returns(bool) {\n        return owners[msg.sender];\n    }\n\n    function registerAdvertiser(string _profileHash) public {\n        address advertiser = new Advertiser(_profileHash, msg.sender);\n        deployedAdvertisers.push(advertiser);\n        advertisers[msg.sender] = advertiser; \n        owners[msg.sender] = true;\n    }\n\n    function getDeployedAdvertisers() public view returns(address[]) {\n        return deployedAdvertisers;\n    }\n\n    function getAdvertiserByOwner() public view returns(address) {\n        return advertisers[msg.sender];\n    }\n}\n\ncontract Advertiser {\n    address owner;\n    string profileHash;\n    address[] deployedOffers;\n\n    modifier restricted() {\n        require(msg.sender == owner, \"You need to have advertiser owner credential for this operation\");\n        _;\n    }\n    constructor(string _profileHash, address _owner) public {\n        owner = _owner;\n        profileHash = _profileHash;\n    }\n\n    function getProfile() public view returns(string, address) {\n        return(\n           profileHash,\n           owner \n        );\n    }\n\n    function updateProfile(string _profileHash) public restricted {\n        profileHash = _profileHash;\n    }\n\n    function createOffer(string _offerProfileHash) public restricted {\n        address offer = new Offer(_offerProfileHash, address(this), msg.sender);\n        deployedOffers.push(offer);\n    }\n\n    function getDeployedOffers() public view returns(address[]) {\n        return deployedOffers;\n    }\n\n}\n\ncontract Offer {\n    string offerProfileHash;\n    address advertiserContract;\n    address advertiserowner;\n    struct Conversion {\n        string clickId;\n        string conversionId;\n        string conversionData;\n        address publisherOfferContractAddress;\n    }\n    Conversion[] conversions;\n\n    modifier restricted() {\n        require(msg.sender == advertiserowner, \"You need to have advertiser owner credential for this operation\");\n        _;\n    }\n\n    constructor(string _offerProfileHash, address _advertiserContract, address _advertiserowner) public {\n        offerProfileHash = _offerProfileHash;\n        advertiserContract = _advertiserContract;\n        advertiserowner = _advertiserowner;\n    }\n\n    function getProfile() public view returns(string, address, address) {\n        return(\n            offerProfileHash,\n            advertiserContract,\n            advertiserowner\n        );\n    }\n\n    function updateProfile(string _offerProfileHash) public restricted {\n        offerProfileHash = _offerProfileHash;\n    }\n\n    function registerConversion(\n        address _publishedOfferContractAddress,\n        string _clickId,\n        string _conversionId,\n        string _conversionData) \n        public restricted \n    {\n        require(_publishedOfferContractAddress != address(0), \"Publisher Offer Contract Address is not found!\");\n\n        Conversion memory newConversion = Conversion({\n            clickId : _clickId,\n            conversionId : _conversionId,\n            conversionData : _conversionData,\n            publisherOfferContractAddress : _publishedOfferContractAddress\n        });\n\n        conversions.push(newConversion);\n\n        PublisherOffer publisherOffer = PublisherOffer(_publishedOfferContractAddress);\n        publisherOffer.registerConversion(_clickId, _conversionId, _conversionData);\n    }\n\n    function getConversionsCount() public view returns(uint) {\n        return conversions.length;\n    }\n\n    function getConversionByIndex(uint index) public view returns(string, string, string, address) {\n        require(index >= 0, \"Index should be positive\");\n\n        Conversion storage conversion = conversions[index];\n\n        return (\n            conversion.clickId,\n            conversion.conversionId,\n            conversion.conversionData,\n            conversion.publisherOfferContractAddress\n        );\n    }\n}",
  "sourcePath": "/Users/raja/ETH-Singapore/smart-aggregator/contracts/Advertiser.sol",
  "compiler": {
    "name": "solc",
    "version": "0.4.24+commit.e67f0147.Emscripten.clang"
  },
  "schemaVersion": "2.0.1",
  "updatedAt": "2018-12-07T18:08:27.461Z"
}