{
  "contractName": "PublisherFactory",
  "abi": [
    {
      "constant": true,
      "inputs": [
        {
          "name": "",
          "type": "uint256"
        }
      ],
      "name": "deployedPublishers",
      "outputs": [
        {
          "name": "",
          "type": "address"
        }
      ],
      "payable": false,
      "stateMutability": "view",
      "type": "function"
    },
    {
      "constant": true,
      "inputs": [],
      "name": "isPublisherRegistered",
      "outputs": [
        {
          "name": "",
          "type": "bool"
        }
      ],
      "payable": false,
      "stateMutability": "view",
      "type": "function"
    },
    {
      "constant": false,
      "inputs": [
        {
          "name": "_profileHash",
          "type": "string"
        }
      ],
      "name": "registerPublisher",
      "outputs": [],
      "payable": false,
      "stateMutability": "nonpayable",
      "type": "function"
    },
    {
      "constant": true,
      "inputs": [],
      "name": "getPublisherByOwner",
      "outputs": [
        {
          "name": "",
          "type": "address"
        }
      ],
      "payable": false,
      "stateMutability": "view",
      "type": "function"
    },
    {
      "constant": true,
      "inputs": [],
      "name": "getDeployedPublishers",
      "outputs": [
        {
          "name": "",
          "type": "address[]"
        }
      ],
      "payable": false,
      "stateMutability": "view",
      "type": "function"
    }
  ],
  "bytecode": "0x608060405234801561001057600080fd5b506119aa806100206000396000f30060806040526004361061006d576000357c0100000000000000000000000000000000000000000000000000000000900463ffffffff1680635bbc5980146100725780636a2be31b146100db5780638a6600a214610148578063e0319ef81461019f578063f5f227a11461020b575b600080fd5b34801561007e57600080fd5b506100d9600480360381019080803590602001908201803590602001908080601f016020809104026020016040519081016040528093929190818152602001838380828437820191505050505050919291929050505061023a565b005b3480156100e757600080fd5b5061010660048036038101908080359060200190929190505050610447565b604051808273ffffffffffffffffffffffffffffffffffffffff1673ffffffffffffffffffffffffffffffffffffffff16815260200191505060405180910390f35b34801561015457600080fd5b5061015d610485565b604051808273ffffffffffffffffffffffffffffffffffffffff1673ffffffffffffffffffffffffffffffffffffffff16815260200191505060405180910390f35b3480156101ab57600080fd5b506101b46104ec565b6040518080602001828103825283818151815260200191508051906020019060200280838360005b838110156101f75780820151818401526020810190506101dc565b505050509050019250505060405180910390f35b34801561021757600080fd5b5061022061057a565b604051808215151515815260200191505060405180910390f35b600081336102466105ce565b80806020018373ffffffffffffffffffffffffffffffffffffffff1673ffffffffffffffffffffffffffffffffffffffff168152602001828103825284818151815260200191508051906020019080838360005b838110156102b557808201518184015260208101905061029a565b50505050905090810190601f1680156102e25780820380516001836020036101000a031916815260200191505b509350505050604051809103906000f080158015610304573d6000803e3d6000fd5b50905060008190806001815401808255809150509060018203906000526020600020016000909192909190916101000a81548173ffffffffffffffffffffffffffffffffffffffff021916908373ffffffffffffffffffffffffffffffffffffffff1602179055505080600160003373ffffffffffffffffffffffffffffffffffffffff1673ffffffffffffffffffffffffffffffffffffffff16815260200190815260200160002060006101000a81548173ffffffffffffffffffffffffffffffffffffffff021916908373ffffffffffffffffffffffffffffffffffffffff1602179055506001600260003373ffffffffffffffffffffffffffffffffffffffff1673ffffffffffffffffffffffffffffffffffffffff16815260200190815260200160002060006101000a81548160ff0219169083151502179055505050565b60008181548110151561045657fe5b906000526020600020016000915054906101000a900473ffffffffffffffffffffffffffffffffffffffff1681565b6000600160003373ffffffffffffffffffffffffffffffffffffffff1673ffffffffffffffffffffffffffffffffffffffff16815260200190815260200160002060009054906101000a900473ffffffffffffffffffffffffffffffffffffffff16905090565b6060600080548060200260200160405190810160405280929190818152602001828054801561057057602002820191906000526020600020905b8160009054906101000a900473ffffffffffffffffffffffffffffffffffffffff1673ffffffffffffffffffffffffffffffffffffffff1681526020019060010190808311610526575b5050505050905090565b6000600260003373ffffffffffffffffffffffffffffffffffffffff1673ffffffffffffffffffffffffffffffffffffffff16815260200190815260200160002060009054906101000a900460ff16905090565b6040516113a0806105df833901905600608060405234801561001057600080fd5b506040516113a03803806113a08339810180604052810190808051820192919060200180519060200190929190505050806000806101000a81548173ffffffffffffffffffffffffffffffffffffffff021916908373ffffffffffffffffffffffffffffffffffffffff160217905550816001908051906020019061009692919061009e565b505050610143565b828054600181600116156101000203166002900490600052602060002090601f016020900481019282601f106100df57805160ff191683800117855561010d565b8280016001018555821561010d579182015b8281111561010c5782518255916020019190600101906100f1565b5b50905061011a919061011e565b5090565b61014091905b8082111561013c576000816000905550600101610124565b5090565b90565b61124e806101526000396000f300608060405260043610610061576000357c0100000000000000000000000000000000000000000000000000000000900463ffffffff1680629299e31461006657806350ce7787146100cf5780637d9380c01461013b578063d6afc9b1146101c4575b600080fd5b34801561007257600080fd5b506100cd600480360381019080803590602001908201803590602001908080601f0160208091040260200160405190810160405280939291908181526020018383808284378201915050505050509192919290505050610254565b005b3480156100db57600080fd5b506100e4610358565b6040518080602001828103825283818151815260200191508051906020019060200280838360005b8381101561012757808201518184015260208101905061010c565b505050509050019250505060405180910390f35b34801561014757600080fd5b506101c2600480360381019080803590602001908201803590602001908080601f0160208091040260200160405190810160405280939291908181526020018383808284378201915050505050509192919290803573ffffffffffffffffffffffffffffffffffffffff1690602001909291905050506103e6565b005b3480156101d057600080fd5b506101d961073b565b6040518080602001828103825283818151815260200191508051906020019080838360005b838110156102195780820151818401526020810190506101fe565b50505050905090810190601f1680156102465780820380516001836020036101000a031916815260200191505b509250505060405180910390f35b6000809054906101000a900473ffffffffffffffffffffffffffffffffffffffff1673ffffffffffffffffffffffffffffffffffffffff163373ffffffffffffffffffffffffffffffffffffffff1614151561033e576040517f08c379a000000000000000000000000000000000000000000000000000000000815260040180806020018281038252602e8152602001807f596f7520617265206e6f7420617574686f72697a656420746f20706572666f7281526020017f6d207468697320616374696f6e2100000000000000000000000000000000000081525060400191505060405180910390fd5b80600190805190602001906103549291906107dd565b5050565b606060028054806020026020016040519081016040528092919081815260200182805480156103dc57602002820191906000526020600020905b8160009054906101000a900473ffffffffffffffffffffffffffffffffffffffff1673ffffffffffffffffffffffffffffffffffffffff1681526020019060010190808311610392575b5050505050905090565b60008060009054906101000a900473ffffffffffffffffffffffffffffffffffffffff1673ffffffffffffffffffffffffffffffffffffffff163373ffffffffffffffffffffffffffffffffffffffff161415156104d2576040517f08c379a000000000000000000000000000000000000000000000000000000000815260040180806020018281038252602e8152602001807f596f7520617265206e6f7420617574686f72697a656420746f20706572666f7281526020017f6d207468697320616374696f6e2100000000000000000000000000000000000081525060400191505060405180910390fd5b600073ffffffffffffffffffffffffffffffffffffffff168273ffffffffffffffffffffffffffffffffffffffff161415151561059d576040517f08c379a000000000000000000000000000000000000000000000000000000000815260040180806020018281038252602f8152602001807f41647665727469736572204f6666657220436f6e74726163742061646472657381526020017f73206973206e6f7420666f756e6421000000000000000000000000000000000081525060400191505060405180910390fd5b823033846105a961085d565b80806020018573ffffffffffffffffffffffffffffffffffffffff1673ffffffffffffffffffffffffffffffffffffffff1681526020018473ffffffffffffffffffffffffffffffffffffffff1673ffffffffffffffffffffffffffffffffffffffff1681526020018373ffffffffffffffffffffffffffffffffffffffff1673ffffffffffffffffffffffffffffffffffffffff168152602001828103825286818151815260200191508051906020019080838360005b8381101561067c578082015181840152602081019050610661565b50505050905090810190601f1680156106a95780820380516001836020036101000a031916815260200191505b5095505050505050604051809103906000f0801580156106cd573d6000803e3d6000fd5b50905060028190806001815401808255809150509060018203906000526020600020016000909192909190916101000a81548173ffffffffffffffffffffffffffffffffffffffff021916908373ffffffffffffffffffffffffffffffffffffffff16021790555050505050565b606060018054600181600116156101000203166002900480601f0160208091040260200160405190810160405280929190818152602001828054600181600116156101000203166002900480156107d35780601f106107a8576101008083540402835291602001916107d3565b820191906000526020600020905b8154815290600101906020018083116107b657829003601f168201915b5050505050905090565b828054600181600116156101000203166002900490600052602060002090601f016020900481019282601f1061081e57805160ff191683800117855561084c565b8280016001018555821561084c579182015b8281111561084b578251825591602001919060010190610830565b5b509050610859919061086d565b5090565b6040516109908061089383390190565b61088f91905b8082111561088b576000816000905550600101610873565b5090565b905600608060405234801561001057600080fd5b5060405161099038038061099083398101806040528101908080518201929190602001805190602001909291908051906020019092919080519060200190929190505050836000908051906020019061006a929190610137565b5082600360006101000a81548173ffffffffffffffffffffffffffffffffffffffff021916908373ffffffffffffffffffffffffffffffffffffffff16021790555081600260006101000a81548173ffffffffffffffffffffffffffffffffffffffff021916908373ffffffffffffffffffffffffffffffffffffffff16021790555080600160006101000a81548173ffffffffffffffffffffffffffffffffffffffff021916908373ffffffffffffffffffffffffffffffffffffffff160217905550505050506101dc565b828054600181600116156101000203166002900490600052602060002090601f016020900481019282601f1061017857805160ff19168380011785556101a6565b828001600101855582156101a6579182015b828111156101a557825182559160200191906001019061018a565b5b5090506101b391906101b7565b5090565b6101d991905b808211156101d55760008160009055506001016101bd565b5090565b90565b6107a5806101eb6000396000f300608060405260043610610078576000357c0100000000000000000000000000000000000000000000000000000000900463ffffffff16806304a4c8d11461007d57806307a33aab146100e65780633f9334f31461013d5780634b6600b2146101cd5780636fc550f7146102245780638efe1cb91461034d575b600080fd5b34801561008957600080fd5b506100e4600480360381019080803590602001908201803590602001908080601f01602080910402602001604051908101604052809392919081815260200183838082843782019150505050505091929192905050506103a4565b005b3480156100f257600080fd5b506100fb6104a9565b604051808273ffffffffffffffffffffffffffffffffffffffff1673ffffffffffffffffffffffffffffffffffffffff16815260200191505060405180910390f35b34801561014957600080fd5b506101526104cf565b6040518080602001828103825283818151815260200191508051906020019080838360005b83811015610192578082015181840152602081019050610177565b50505050905090810190601f1680156101bf5780820380516001836020036101000a031916815260200191505b509250505060405180910390f35b3480156101d957600080fd5b506101e261056d565b604051808273ffffffffffffffffffffffffffffffffffffffff1673ffffffffffffffffffffffffffffffffffffffff16815260200191505060405180910390f35b34801561023057600080fd5b50610239610593565b60405180806020018573ffffffffffffffffffffffffffffffffffffffff1673ffffffffffffffffffffffffffffffffffffffff1681526020018473ffffffffffffffffffffffffffffffffffffffff1673ffffffffffffffffffffffffffffffffffffffff1681526020018373ffffffffffffffffffffffffffffffffffffffff1673ffffffffffffffffffffffffffffffffffffffff168152602001828103825286818151815260200191508051906020019080838360005b8381101561030f5780820151818401526020810190506102f4565b50505050905090810190601f16801561033c5780820380516001836020036101000a031916815260200191505b509550505050505060405180910390f35b34801561035957600080fd5b506103626106ae565b604051808273ffffffffffffffffffffffffffffffffffffffff1673ffffffffffffffffffffffffffffffffffffffff16815260200191505060405180910390f35b600260009054906101000a900473ffffffffffffffffffffffffffffffffffffffff1673ffffffffffffffffffffffffffffffffffffffff163373ffffffffffffffffffffffffffffffffffffffff1614151561048f576040517f08c379a000000000000000000000000000000000000000000000000000000000815260040180806020018281038252602d8152602001807f596f7520617265206e6f74206175746f72697a656420746f20706572666f726d81526020017f207468697320616374696f6e730000000000000000000000000000000000000081525060400191505060405180910390fd5b80600090805190602001906104a59291906106d4565b5050565b600260009054906101000a900473ffffffffffffffffffffffffffffffffffffffff1681565b60008054600181600116156101000203166002900480601f0160208091040260200160405190810160405280929190818152602001828054600181600116156101000203166002900480156105655780601f1061053a57610100808354040283529160200191610565565b820191906000526020600020905b81548152906001019060200180831161054857829003601f168201915b505050505081565b600360009054906101000a900473ffffffffffffffffffffffffffffffffffffffff1681565b6060600080600080600360009054906101000a900473ffffffffffffffffffffffffffffffffffffffff16600260009054906101000a900473ffffffffffffffffffffffffffffffffffffffff16600160009054906101000a900473ffffffffffffffffffffffffffffffffffffffff16838054600181600116156101000203166002900480601f0160208091040260200160405190810160405280929190818152602001828054600181600116156101000203166002900480156106995780601f1061066e57610100808354040283529160200191610699565b820191906000526020600020905b81548152906001019060200180831161067c57829003601f168201915b50505050509350935093509350935090919293565b600160009054906101000a900473ffffffffffffffffffffffffffffffffffffffff1681565b828054600181600116156101000203166002900490600052602060002090601f016020900481019282601f1061071557805160ff1916838001178555610743565b82800160010185558215610743579182015b82811115610742578251825591602001919060010190610727565b5b5090506107509190610754565b5090565b61077691905b8082111561077257600081600090555060010161075a565b5090565b905600a165627a7a72305820002de30aa173cb0d1238e2d30a3a7fe0474896bf6fd6d5c94a79d9f1c16453cc0029a165627a7a72305820da1fbfe80e9f608f4143e40162fe4445e1fde3cc1d65fa2bb286bfd5409ab28c0029a165627a7a723058208b1e859fa9d598d174baa558615ccfcb5990a1033b4295961162ad150d863cc10029",
  "source": "pragma solidity ^0.4.24;\n\ncontract PublisherFactory {\n    address[] public deployedPublishers;\n    mapping(address => address) publishers; // owner to publisher\n    mapping(address => bool) owners;\n\n    function isPublisherRegistered() public view returns(bool) {\n        return owners[msg.sender];\n    }\n\n    function registerPublisher(string _profileHash) public {\n        address publisher = new Publisher(_profileHash, msg.sender);\n        deployedPublishers.push(publisher);\n        publishers[msg.sender] = publisher;\n        owners[msg.sender] = true;\n    }\n\n    function getPublisherByOwner() public view returns(address) {\n        return publishers[msg.sender];\n    }\n\n    function getDeployedPublishers() public view returns(address[]) {\n        return deployedPublishers;\n    }\n}\n\ncontract Publisher {\n    address owner;\n    string profileHash;\n\n    address[] deployedPublisherOffers;\n\n    constructor(string _profileHash, address _owner) public {\n        owner = _owner;\n        profileHash = _profileHash;\n    }\n\n    modifier restricted() {\n        require(msg.sender == owner, \"You are not authorized to perform this action!\");\n        _;\n    }\n\n    function updateProfile(string _profileHash) public restricted {\n        profileHash = _profileHash;\n    }\n\n    function getProfile() public view returns(string) {\n        return profileHash;\n    }\n\n    function createPublisherOffer(string _publisherOfferHash, address _advertiserOfferContract) public restricted {\n        require(_advertiserOfferContract != address(0), \"Advertiser Offer Contract address is not found!\");\n\n        address publisherOffer = new PublisherOffer(_publisherOfferHash, address(this), msg.sender, _advertiserOfferContract);\n\n        deployedPublisherOffers.push(publisherOffer);\n    }\n\n    function getDeployedPublisherOffers() public view returns (address[]) {\n        return deployedPublisherOffers;\n    }\n}\n\ncontract PublisherOffer {\n    string public publisherOfferHash;\n    address public advertiserOfferContract;\n    address public publisherOwner;\n    address public publisherContract;\n\n    constructor(string _publisherOfferHash, address _publisherContract, address _publisherOwner, address _advertiserOfferContract) public {\n        publisherOfferHash = _publisherOfferHash;\n        publisherContract = _publisherContract;\n        publisherOwner = _publisherOwner;\n        advertiserOfferContract = _advertiserOfferContract;\n    }\n\n    modifier restricted() {\n        require(msg.sender == publisherOwner, \"You are not autorized to perform this actions\");\n        _;\n    }\n\n    function updatePublisherOffer(string _publisherOfferHash) public restricted {\n        publisherOfferHash = _publisherOfferHash;\n    }\n\n    function getPublisherOffer() public view returns(string, address, address, address) {\n        return(publisherOfferHash, publisherContract, publisherOwner, advertiserOfferContract);\n    }\n}",
  "sourcePath": "/Users/raja/ETH-Singapore/smart-aggregator/contracts/Publisher.sol",
  "compiler": {
    "name": "solc",
    "version": "0.4.24+commit.e67f0147.Emscripten.clang"
  },
  "schemaVersion": "2.0.1",
  "updatedAt": "2018-12-07T17:55:56.875Z"
}