{
  "contractName": "Publisher",
  "abi": [
    {
      "inputs": [
        {
          "name": "_profileHash",
          "type": "string"
        },
        {
          "name": "_owner",
          "type": "address"
        }
      ],
      "payable": false,
      "stateMutability": "nonpayable",
      "type": "constructor"
    },
    {
      "constant": false,
      "inputs": [
        {
          "name": "_profileHash",
          "type": "string"
        }
      ],
      "name": "updateProfile",
      "outputs": [],
      "payable": false,
      "stateMutability": "nonpayable",
      "type": "function"
    },
    {
      "constant": true,
      "inputs": [],
      "name": "getProfile",
      "outputs": [
        {
          "name": "",
          "type": "string"
        }
      ],
      "payable": false,
      "stateMutability": "view",
      "type": "function"
    },
    {
      "constant": false,
      "inputs": [
        {
          "name": "_publisherOfferHash",
          "type": "string"
        },
        {
          "name": "_advertiserOfferContract",
          "type": "address"
        }
      ],
      "name": "createPublisherOffer",
      "outputs": [],
      "payable": false,
      "stateMutability": "nonpayable",
      "type": "function"
    },
    {
      "constant": true,
      "inputs": [],
      "name": "getDeployedPublisherOffers",
      "outputs": [
        {
          "name": "",
          "type": "address[]"
        }
      ],
      "payable": false,
      "stateMutability": "view",
      "type": "function"
    }
  ],
  "bytecode": "0x608060405234801561001057600080fd5b50604051611f90380380611f908339810180604052810190808051820192919060200180519060200190929190505050806000806101000a81548173ffffffffffffffffffffffffffffffffffffffff021916908373ffffffffffffffffffffffffffffffffffffffff160217905550816001908051906020019061009692919061009e565b505050610143565b828054600181600116156101000203166002900490600052602060002090601f016020900481019282601f106100df57805160ff191683800117855561010d565b8280016001018555821561010d579182015b8281111561010c5782518255916020019190600101906100f1565b5b50905061011a919061011e565b5090565b61014091905b8082111561013c576000816000905550600101610124565b5090565b90565b611e3e806101526000396000f300608060405260043610610061576000357c0100000000000000000000000000000000000000000000000000000000900463ffffffff1680629299e31461006657806350ce7787146100cf5780637d9380c01461013b578063d6afc9b1146101c4575b600080fd5b34801561007257600080fd5b506100cd600480360381019080803590602001908201803590602001908080601f0160208091040260200160405190810160405280939291908181526020018383808284378201915050505050509192919290505050610254565b005b3480156100db57600080fd5b506100e4610358565b6040518080602001828103825283818151815260200191508051906020019060200280838360005b8381101561012757808201518184015260208101905061010c565b505050509050019250505060405180910390f35b34801561014757600080fd5b506101c2600480360381019080803590602001908201803590602001908080601f0160208091040260200160405190810160405280939291908181526020018383808284378201915050505050509192919290803573ffffffffffffffffffffffffffffffffffffffff1690602001909291905050506103e6565b005b3480156101d057600080fd5b506101d961073b565b6040518080602001828103825283818151815260200191508051906020019080838360005b838110156102195780820151818401526020810190506101fe565b50505050905090810190601f1680156102465780820380516001836020036101000a031916815260200191505b509250505060405180910390f35b6000809054906101000a900473ffffffffffffffffffffffffffffffffffffffff1673ffffffffffffffffffffffffffffffffffffffff163373ffffffffffffffffffffffffffffffffffffffff1614151561033e576040517f08c379a000000000000000000000000000000000000000000000000000000000815260040180806020018281038252602e8152602001807f596f7520617265206e6f7420617574686f72697a656420746f20706572666f7281526020017f6d207468697320616374696f6e2100000000000000000000000000000000000081525060400191505060405180910390fd5b80600190805190602001906103549291906107dd565b5050565b606060028054806020026020016040519081016040528092919081815260200182805480156103dc57602002820191906000526020600020905b8160009054906101000a900473ffffffffffffffffffffffffffffffffffffffff1673ffffffffffffffffffffffffffffffffffffffff1681526020019060010190808311610392575b5050505050905090565b60008060009054906101000a900473ffffffffffffffffffffffffffffffffffffffff1673ffffffffffffffffffffffffffffffffffffffff163373ffffffffffffffffffffffffffffffffffffffff161415156104d2576040517f08c379a000000000000000000000000000000000000000000000000000000000815260040180806020018281038252602e8152602001807f596f7520617265206e6f7420617574686f72697a656420746f20706572666f7281526020017f6d207468697320616374696f6e2100000000000000000000000000000000000081525060400191505060405180910390fd5b600073ffffffffffffffffffffffffffffffffffffffff168273ffffffffffffffffffffffffffffffffffffffff161415151561059d576040517f08c379a000000000000000000000000000000000000000000000000000000000815260040180806020018281038252602f8152602001807f41647665727469736572204f6666657220436f6e74726163742061646472657381526020017f73206973206e6f7420666f756e6421000000000000000000000000000000000081525060400191505060405180910390fd5b823330846105a961085d565b80806020018573ffffffffffffffffffffffffffffffffffffffff1673ffffffffffffffffffffffffffffffffffffffff1681526020018473ffffffffffffffffffffffffffffffffffffffff1673ffffffffffffffffffffffffffffffffffffffff1681526020018373ffffffffffffffffffffffffffffffffffffffff1673ffffffffffffffffffffffffffffffffffffffff168152602001828103825286818151815260200191508051906020019080838360005b8381101561067c578082015181840152602081019050610661565b50505050905090810190601f1680156106a95780820380516001836020036101000a031916815260200191505b5095505050505050604051809103906000f0801580156106cd573d6000803e3d6000fd5b50905060028190806001815401808255809150509060018203906000526020600020016000909192909190916101000a81548173ffffffffffffffffffffffffffffffffffffffff021916908373ffffffffffffffffffffffffffffffffffffffff16021790555050505050565b606060018054600181600116156101000203166002900480601f0160208091040260200160405190810160405280929190818152602001828054600181600116156101000203166002900480156107d35780601f106107a8576101008083540402835291602001916107d3565b820191906000526020600020905b8154815290600101906020018083116107b657829003601f168201915b5050505050905090565b828054600181600116156101000203166002900490600052602060002090601f016020900481019282601f1061081e57805160ff191683800117855561084c565b8280016001018555821561084c579182015b8281111561084b578251825591602001919060010190610830565b5b509050610859919061086d565b5090565b6040516115808061089383390190565b61088f91905b8082111561088b576000816000905550600101610873565b5090565b90560060806040523480156200001157600080fd5b5060405162001580380380620015808339810180604052810190808051820192919060200180519060200190929190805190602001909291908051906020019092919050505083600090805190602001906200006f9291906200013d565b5082600160006101000a81548173ffffffffffffffffffffffffffffffffffffffff021916908373ffffffffffffffffffffffffffffffffffffffff16021790555081600260006101000a81548173ffffffffffffffffffffffffffffffffffffffff021916908373ffffffffffffffffffffffffffffffffffffffff16021790555080600360006101000a81548173ffffffffffffffffffffffffffffffffffffffff021916908373ffffffffffffffffffffffffffffffffffffffff16021790555050505050620001ec565b828054600181600116156101000203166002900490600052602060002090601f016020900481019282601f106200018057805160ff1916838001178555620001b1565b82800160010185558215620001b1579182015b82811115620001b057825182559160200191906001019062000193565b5b509050620001c09190620001c4565b5090565b620001e991905b80821115620001e5576000816000905550600101620001cb565b5090565b90565b61138480620001fc6000396000f3006080604052600436106100ba576000357c0100000000000000000000000000000000000000000000000000000000900463ffffffff16806304a4c8d1146100bf57806307a33aab146101285780633f9334f31461017f5780634b6600b21461020f5780636fc550f7146102665780638efe1cb91461038f57806394d41a44146103e65780639dbfe85e14610459578063bb3d11d5146105d7578063c209cd6d14610602578063d1cef9ad146106af578063d745c04d146106da575b600080fd5b3480156100cb57600080fd5b50610126600480360381019080803590602001908201803590602001908080601f01602080910402602001604051908101604052809392919081815260200183838082843782019150505050505091929192905050506107cf565b005b34801561013457600080fd5b5061013d6108d4565b604051808273ffffffffffffffffffffffffffffffffffffffff1673ffffffffffffffffffffffffffffffffffffffff16815260200191505060405180910390f35b34801561018b57600080fd5b506101946108fa565b6040518080602001828103825283818151815260200191508051906020019080838360005b838110156101d45780820151818401526020810190506101b9565b50505050905090810190601f1680156102015780820380516001836020036101000a031916815260200191505b509250505060405180910390f35b34801561021b57600080fd5b50610224610998565b604051808273ffffffffffffffffffffffffffffffffffffffff1673ffffffffffffffffffffffffffffffffffffffff16815260200191505060405180910390f35b34801561027257600080fd5b5061027b6109be565b60405180806020018573ffffffffffffffffffffffffffffffffffffffff1673ffffffffffffffffffffffffffffffffffffffff1681526020018473ffffffffffffffffffffffffffffffffffffffff1673ffffffffffffffffffffffffffffffffffffffff1681526020018373ffffffffffffffffffffffffffffffffffffffff1673ffffffffffffffffffffffffffffffffffffffff168152602001828103825286818151815260200191508051906020019080838360005b83811015610351578082015181840152602081019050610336565b50505050905090810190601f16801561037e5780820380516001836020036101000a031916815260200191505b509550505050505060405180910390f35b34801561039b57600080fd5b506103a4610ad9565b604051808273ffffffffffffffffffffffffffffffffffffffff1673ffffffffffffffffffffffffffffffffffffffff16815260200191505060405180910390f35b3480156103f257600080fd5b5061045760048036038101908080359060200190929190803590602001908201803590602001908080601f0160208091040260200160405190810160405280939291908181526020018383808284378201915050505050509192919290505050610aff565b005b34801561046557600080fd5b5061048460048036038101908080359060200190929190505050610c66565b60405180806020018060200180602001848103845287818151815260200191508051906020019080838360005b838110156104cc5780820151818401526020810190506104b1565b50505050905090810190601f1680156104f95780820380516001836020036101000a031916815260200191505b50848103835286818151815260200191508051906020019080838360005b83811015610532578082015181840152602081019050610517565b50505050905090810190601f16801561055f5780820380516001836020036101000a031916815260200191505b50848103825285818151815260200191508051906020019080838360005b8381101561059857808201518184015260208101905061057d565b50505050905090810190601f1680156105c55780820380516001836020036101000a031916815260200191505b50965050505050505060405180910390f35b3480156105e357600080fd5b506105ec610ef2565b6040518082815260200191505060405180910390f35b34801561060e57600080fd5b5061062d60048036038101908080359060200190929190505050610eff565b6040518083815260200180602001828103825283818151815260200191508051906020019080838360005b83811015610673578082015181840152602081019050610658565b50505050905090810190601f1680156106a05780820380516001836020036101000a031916815260200191505b50935050505060405180910390f35b3480156106bb57600080fd5b506106c461104b565b6040518082815260200191505060405180910390f35b3480156106e657600080fd5b506107cd600480360381019080803590602001908201803590602001908080601f0160208091040260200160405190810160405280939291908181526020018383808284378201915050505050509192919290803590602001908201803590602001908080601f0160208091040260200160405190810160405280939291908181526020018383808284378201915050505050509192919290803590602001908201803590602001908080601f0160208091040260200160405190810160405280939291908181526020018383808284378201915050505050509192919290505050611058565b005b600160009054906101000a900473ffffffffffffffffffffffffffffffffffffffff1673ffffffffffffffffffffffffffffffffffffffff163373ffffffffffffffffffffffffffffffffffffffff161415156108ba576040517f08c379a000000000000000000000000000000000000000000000000000000000815260040180806020018281038252602d8152602001807f596f7520617265206e6f74206175746f72697a656420746f20706572666f726d81526020017f207468697320616374696f6e730000000000000000000000000000000000000081525060400191505060405180910390fd5b80600090805190602001906108d09291906111f7565b5050565b600160009054906101000a900473ffffffffffffffffffffffffffffffffffffffff1681565b60008054600181600116156101000203166002900480601f0160208091040260200160405190810160405280929190818152602001828054600181600116156101000203166002900480156109905780601f1061096557610100808354040283529160200191610990565b820191906000526020600020905b81548152906001019060200180831161097357829003601f168201915b505050505081565b600260009054906101000a900473ffffffffffffffffffffffffffffffffffffffff1681565b6060600080600080600260009054906101000a900473ffffffffffffffffffffffffffffffffffffffff16600160009054906101000a900473ffffffffffffffffffffffffffffffffffffffff16600360009054906101000a900473ffffffffffffffffffffffffffffffffffffffff16838054600181600116156101000203166002900480601f016020809104026020016040519081016040528092919081815260200182805460018160011615610100020316600290048015610ac45780601f10610a9957610100808354040283529160200191610ac4565b820191906000526020600020905b815481529060010190602001808311610aa757829003601f168201915b50505050509350935093509350935090919293565b600360009054906101000a900473ffffffffffffffffffffffffffffffffffffffff1681565b610b07611277565b600160009054906101000a900473ffffffffffffffffffffffffffffffffffffffff1673ffffffffffffffffffffffffffffffffffffffff163373ffffffffffffffffffffffffffffffffffffffff16141515610bf2576040517f08c379a000000000000000000000000000000000000000000000000000000000815260040180806020018281038252602d8152602001807f596f7520617265206e6f74206175746f72697a656420746f20706572666f726d81526020017f207468697320616374696f6e730000000000000000000000000000000000000081525060400191505060405180910390fd5b604080519081016040528084815260200183815250905060048190806001815401808255809150509060018203906000526020600020906002020160009091929091909150600082015181600001556020820151816001019080519060200190610c5d929190611291565b50505050505050565b60608060606000808510151515610ce5576040517f08c379a00000000000000000000000000000000000000000000000000000000081526004018080602001828103825260188152602001807f496e6465782073686f756c6420626520706f736974697665000000000000000081525060200191505060405180910390fd5b600585815481101515610cf457fe5b90600052602060002090600302019050806000018160010182600201828054600181600116156101000203166002900480601f016020809104026020016040519081016040528092919081815260200182805460018160011615610100020316600290048015610da55780601f10610d7a57610100808354040283529160200191610da5565b820191906000526020600020905b815481529060010190602001808311610d8857829003601f168201915b50505050509250818054600181600116156101000203166002900480601f016020809104026020016040519081016040528092919081815260200182805460018160011615610100020316600290048015610e415780601f10610e1657610100808354040283529160200191610e41565b820191906000526020600020905b815481529060010190602001808311610e2457829003601f168201915b50505050509150808054600181600116156101000203166002900480601f016020809104026020016040519081016040528092919081815260200182805460018160011615610100020316600290048015610edd5780601f10610eb257610100808354040283529160200191610edd565b820191906000526020600020905b815481529060010190602001808311610ec057829003601f168201915b50505050509050935093509350509193909250565b6000600480549050905090565b600060606000808410151515610f7d576040517f08c379a00000000000000000000000000000000000000000000000000000000081526004018080602001828103825260208152602001807f496e6465782073686f756c64206265206120706f7369746976652076616c756581525060200191505060405180910390fd5b600484815481101515610f8c57fe5b90600052602060002090600202019050806000015481600101808054600181600116156101000203166002900480601f01602080910402602001604051908101604052809291908181526020018280546001816001161561010002031660029004801561103a5780601f1061100f5761010080835404028352916020019161103a565b820191906000526020600020905b81548152906001019060200180831161101d57829003601f168201915b505050505090509250925050915091565b6000600580549050905090565b611060611311565b600360009054906101000a900473ffffffffffffffffffffffffffffffffffffffff1673ffffffffffffffffffffffffffffffffffffffff163373ffffffffffffffffffffffffffffffffffffffff1614151561114b576040517f08c379a00000000000000000000000000000000000000000000000000000000081526004018080602001828103825260328152602001807f596f7520646f206e6f742068617665207065726d697373696f6e20746f20706581526020017f72666f726d207468697320616374696f6e21000000000000000000000000000081525060400191505060405180910390fd5b6060604051908101604052808581526020018481526020018381525090506005819080600181540180825580915050906001820390600052602060002090600302016000909192909190915060008201518160000190805190602001906111b3929190611291565b5060208201518160010190805190602001906111d0929190611291565b5060408201518160020190805190602001906111ed929190611291565b5050505050505050565b828054600181600116156101000203166002900490600052602060002090601f016020900481019282601f1061123857805160ff1916838001178555611266565b82800160010185558215611266579182015b8281111561126557825182559160200191906001019061124a565b5b5090506112739190611333565b5090565b604080519081016040528060008152602001606081525090565b828054600181600116156101000203166002900490600052602060002090601f016020900481019282601f106112d257805160ff1916838001178555611300565b82800160010185558215611300579182015b828111156112ff5782518255916020019190600101906112e4565b5b50905061130d9190611333565b5090565b6060604051908101604052806060815260200160608152602001606081525090565b61135591905b80821115611351576000816000905550600101611339565b5090565b905600a165627a7a723058209f0f24d92c8c35bff9fb3d8394118ad6b0f7aaad5e2ebbfdcf8d64913321779c0029a165627a7a723058201c661a074e427953ba524d744b1bcc1311d6f9b98ef1f2980473ee78c56b5ac80029",
  "source": "pragma solidity ^0.4.24;\n\ncontract PublisherFactory {\n    address[] public deployedPublishers;\n    mapping(address => address) publishers; // owner to publisher\n    mapping(address => bool) owners;\n\n    function isPublisherRegistered() public view returns(bool) {\n        return owners[msg.sender];\n    }\n\n    function registerPublisher(string _profileHash) public {\n        address publisher = new Publisher(_profileHash, msg.sender);\n        deployedPublishers.push(publisher);\n        publishers[msg.sender] = publisher;\n        owners[msg.sender] = true;\n    }\n\n    function getPublisherByOwner() public view returns(address) {\n        return publishers[msg.sender];\n    }\n\n    function getDeployedPublishers() public view returns(address[]) {\n        return deployedPublishers;\n    }\n}\n\ncontract Publisher {\n    address owner;\n    string profileHash;\n    address[] deployedPublisherOffers;\n\n    constructor(string _profileHash, address _owner) public {\n        owner = _owner;\n        profileHash = _profileHash;\n    }\n\n    modifier restricted() {\n        require(msg.sender == owner, \"You are not authorized to perform this action!\");\n        _;\n    }\n\n    function updateProfile(string _profileHash) public restricted {\n        profileHash = _profileHash;\n    }\n\n    function getProfile() public view returns(string) {\n        return profileHash;\n    }\n\n    function createPublisherOffer(string _publisherOfferHash, address _advertiserOfferContract) public restricted {\n        require(_advertiserOfferContract != address(0), \"Advertiser Offer Contract address is not found!\");\n\n        address publisherOffer = new PublisherOffer(_publisherOfferHash, msg.sender, address(this), _advertiserOfferContract);\n\n        deployedPublisherOffers.push(publisherOffer);\n    }\n\n    function getDeployedPublisherOffers() public view returns (address[]) {\n        return deployedPublisherOffers;\n    }\n}\n\ncontract PublisherOffer {\n    string public publisherOfferHash;\n    address public publisherOwner;\n    address public publisherContract;\n    address public advertiserOfferContract;\n    struct Click {\n        uint256 userId;\n        string clickId;\n    }\n    Click[] clicks;\n\n    struct Conversion {\n        string clickId;\n        string conversionId;\n        string conversionData;\n    }\n    Conversion[] conversions;\n\n    modifier restricted() {\n        require(msg.sender == publisherOwner, \"You are not autorized to perform this actions\");\n        _;\n    }\n\n    constructor(string _publisherOfferHash, address _publisherOwner, address _publisherContract, address _advertiserOfferContract) public {\n        publisherOfferHash = _publisherOfferHash;\n        publisherOwner = _publisherOwner;\n        publisherContract = _publisherContract;\n        advertiserOfferContract = _advertiserOfferContract;\n    }\n\n    function updatePublisherOffer(string _publisherOfferHash) public restricted {\n        publisherOfferHash = _publisherOfferHash;\n    }\n\n    function getPublisherOffer() public view returns(string, address, address, address) {\n        return(publisherOfferHash, publisherContract, publisherOwner, advertiserOfferContract);\n    }\n\n   \n    function registerClick(uint256 _userId, string _clickId) public restricted {\n        Click memory newClick = Click({ userId : _userId, clickId: _clickId});\n        clicks.push(newClick);\n    }\n\n    function getClickByIndex(uint index) public view returns(uint256, string) {\n        require(index >= 0, \"Index should be a positive value\");\n\n        Click storage click = clicks[index];\n\n        return(click.userId, click.clickId);\n    }\n\n    function getClicksCount() public view returns(uint) {\n        return clicks.length;\n    }\n\n    function registerConversion(string _clickId, string _conversionId, string _conversionData) public {\n        require(msg.sender == advertiserOfferContract, \"You do not have permission to perform this action!\");\n\n        Conversion memory newConversion = Conversion({ clickId : _clickId, conversionId : _conversionId, conversionData : _conversionData });\n        conversions.push(newConversion);\n    }\n\n    function getConversionsCount() public view returns(uint) {\n        return conversions.length;\n    }\n\n    function getConversionByIndex(uint index) public view returns(string, string, string) {\n        require(index >= 0, \"Index should be positive\");\n\n        Conversion storage conversion = conversions[index];\n\n        return (conversion.clickId, conversion.conversionId, conversion.conversionData);\n    }\n}",
  "sourcePath": "/Users/raja/ETH-Singapore/smart-aggregator/contracts/Publisher.sol",
  "compiler": {
    "name": "solc",
    "version": "0.4.24+commit.e67f0147.Emscripten.clang"
  },
  "schemaVersion": "2.0.1",
  "updatedAt": "2018-12-07T18:08:27.483Z"
}